:1000000033C0000039C0000037C0000035C0000018
:1000100033C0000031C000002FC000002DC0000020
:100020002BC0000029C0000027C0000025C0000030
:1000300023C0000021C000001FC000001DC0000040
:100040001BC0000019C000005FC0000015C0000008
:1000500013C0000011C000000FC000000DC0000060
:100060000BC0000009C0000011241FBECFEFD8E074
:10007000DEBFCDBF0AD11AC1C3CF419A2FEF89E6A7
:1000800098E1215080409040E1F700C00000419885
:100090002FEF89E698E1215080409040E1F700C0C1
:1000A0000000419A2FEF89E698E12150804090406E
:1000B000E1F700C0000041982FEF89E698E1215058
:1000C00080409040E1F700C00000089529B132E07F
:1000D000380F81E090E001C0880F3A95EAF782235B
:1000E00008959093C5008093C40088E98093C1006F
:1000F00086E08093C200789408959091C00095FFA7
:10010000FCCF8093C60008951F920F920FB60F92F6
:1001100011242F933F934F935F936F937F938F930C
:100120009F93AF93BF93EF93FF938091C600E5DF5A
:10013000FF91EF91BF91AF919F918F917F916F91BF
:100140005F914F913F912F910F900FBE0F901F9095
:1001500018955F9A00C000C05F9800C008955F9A2C
:1001600000005F9800C000C0000008955F9A00C0C2
:1001700000C000005F9800005F9A00C000C000004F
:100180005F9800005F9A00C000C000005F98000008
:100190005F9A00C000C000005F9800005F9A00C036
:1001A00000C000005F9800005F9A00C000C000001F
:1001B0005F9800005F9A00C000C000005F980000D8
:1001C0005F9A00C000C000005F98000008955F9A29
:1001D00000005F9800C000C000005F9A00005F98B8
:1001E00000C000C000005F9A00005F9800C000C01F
:1001F00000005F9A00005F9800C000C000005F9A96
:1002000000005F9800C000C000005F9A00005F9887
:1002100000C000C000005F9A00005F9800C000C0EE
:1002200000005F9A00005F9800C000C000000895C1
:10023000CF93CCE0CCDFCBDFCADFC9DFC150D1F731
:100240002FEF89E698E1215080409040E1F700C00F
:100250000000CF910895CF93DF93C1E0D0E0B7DFE6
:1002600085DFB5DF83DFDF5FCD17C8F72FEF80E7CE
:1002700092E0215080409040E1F700C00000CF5F45
:10028000CC3061F7DF91CF91089587B18A6087B94B
:10029000579A439ACDDF2FEF89E698E121508040AD
:1002A0009040E1F700C00000D6DFFECFF894FFCF0A
:00000001FF
